:020000040800F2
:10000000000002204D330008993200089B3200089E
:100010009D3200089F320008A13200080000000055
:10002000000000000000000000000000A3320008F3
:10003000A532000800000000A7320008A93200081D
:100040009D3300089D3300089D3300089D33000850
:100050009D3300089D3300089D3300089D33000840
:100060009D3300089D3300089D3300089D33000830
:100070009D3300089D3300089D3300089D33000820
:100080009D3300089D3300089D3300089D33000810
:100090009D3300089D3300089D3300089D33000800
:1000A0009D3300089D3300089D3300089D330008F0
:1000B0009D3300089D3300089D3300089D330008E0
:1000C0009D3300089D3300089D3300089D330008D0
:1000D0009D330008B13200089D3300089D330008AD
:1000E0009D3300089D3300089D3300089D330008B0
:1000F0009D3300089D3300089D3300089D330008A0
:100100009D3300089D3300089D3300089D3300088F
:100110009D3300089D3300089D3300089D3300087F
:10012000C13200089D3300089D3300089D3300084C
:100130009D3300089D3300089D3300089D3300085F
:100140009D3300089D3300089D3300089D3300084F
:100150009D3300089D3300089D3300089D3300083F
:100160009D3300089D3300089D3300089D3300082F
:100170009D3300089D3300089D33000800000000F7
:080180009D3300089D330008C7
:1001C00010B5054C237833B9044B13B10448AFF391
:1001D00000800123237010BDB8090020000000003A
:1001E000DCA6000808B5034B1BB103490348AFF375
:1001F000008008BD00000000BC090020DCA600084B
:1002000081F0004102E000BF83F0004330B54FEAC7
:1002100041044FEA430594EA050F08BF90EA020F34
:100220001FBF54EA000C55EA020C7FEA645C7FEAC7
:10023000655C00F0E2804FEA5454D4EB5555B8BFEA
:100240006D420CDD2C4480EA020281EA030382EA5B
:10025000000083EA010180EA020281EA0303362DED
:1002600088BF30BD11F0004F4FEA01314FF4801CC0
:100270004CEA113102D0404261EB410113F0004FD2
:100280004FEA03334CEA133302D0524263EB430389
:1002900094EA050F00F0A780A4F10104D5F1200E27
:1002A0000DDB02FA0EFC22FA05F2801841F1000182
:1002B00003FA0EF2801843FA05F359410EE0A5F156
:1002C00020050EF1200E012A03FA0EFC28BF4CF087
:1002D000020C43FA05F3C01851EBE37101F000453D
:1002E00007D54FF0000EDCF1000C7EEB00006EEB4A
:1002F0000101B1F5801F1BD3B1F5001F0CD34908D4
:100300005FEA30004FEA3C0C04F101044FEA44522A
:1003100012F5800F80F09A80BCF1004F08BF5FEAB1
:10032000500C50F1000041EB045141EA050130BD91
:100330005FEA4C0C404141EB0101013C28BFB1F5A3
:10034000801FE9D291F0000F04BF01460020B1FAEE
:1003500081F308BF2033A3F10B03B3F120020CDAC1
:100360000C3208DD02F1140CC2F10C0201FA0CF09F
:1003700021FA02F10CE002F11402D8BFC2F1200C04
:1003800001FA02F120FA0CFCDCBF41EA0C019040BA
:10039000E41AA2BF01EB0451294330BD6FEA040403
:1003A0001F3C1CDA0C340EDC04F11404C4F12002EE
:1003B00020FA04F001FA02F340EA030021FA04F300
:1003C00045EA030130BDC4F10C04C4F1200220FA57
:1003D00002F001FA04F340EA0300294630BD21FA95
:1003E00004F0294630BD94F0000F83F4801306BF5B
:1003F00081F480110134013D4EE77FEA645C18BF4F
:100400007FEA655C29D094EA050F08BF90EA020FE5
:1004100005D054EA000C04BF1946104630BD91EADD
:10042000030F1EBF0021002030BD5FEA545C05D1E0
:100430004000494128BF41F0004130BD14F580041F
:100440003CBF01F5801130BD01F0004545F0FE4193
:1004500041F470014FF0000030BD7FEA645C1ABFC8
:10046000194610467FEA655C1CBF0B46024650EAFF
:10047000013406BF52EA033591EA030F41F400212B
:1004800030BD00BF90F0000F04BF0021704730B5B1
:100490004FF4806404F132044FF000054FF0000186
:1004A00050E700BF90F0000F04BF0021704730B547
:1004B0004FF4806404F1320410F0004548BF40421C
:1004C0004FF000013EE700BF42004FEAE2014FEA71
:1004D00031014FEA02701FBF12F07F4393F07F4F4C
:1004E00081F06051704732F07F4208BF704793F04F
:1004F0007F4F04BF41F40021704730B54FF4607462
:1005000001F0004521F000411CE700BF50EA010264
:1005100008BF704730B54FF000050AE050EA01020D
:1005200008BF704730B511F0004502D5404261EB7D
:1005300041014FF4806404F132045FEA915C3FF4BE
:10054000D8AE4FF003025FEADC0C18BF03325FEA5B
:10055000DC0C18BF033202EBDC02C2F1200300FA0C
:1005600003FC20FA02F001FA03FE40EA0E0021FA31
:1005700002F11444BDE600BF53B94AB9002908BFCF
:1005800000281CBF4FF0FF314FF0FF3000F074B96E
:10059000ADF1080C6DE904CE00F006F8DDF804E0DA
:1005A000DDE9022304B070472DE9F047089D0446B9
:1005B0008E46002B4DD18A42944669D9B2FA82F216
:1005C00052B101FA02F3C2F1200120FA01F10CFA52
:1005D00002FC41EA030E94404FEA1C48210CBEFB8A
:1005E000F8F61FFA8CF708FB16E341EA034306FB13
:1005F00007F199420AD91CEB030306F1FF3080F0A2
:100600001F81994240F21C81023E63445B1AA4B2EE
:10061000B3FBF8F008FB103344EA034400FB07F790
:10062000A7420AD91CEB040400F1FF3380F00A81D1
:10063000A74240F207816444023840EA0640E41BC6
:1006400000261DB1D4400023C5E900433146BDE872
:10065000F0878B4209D9002D00F0EF800026C5E914
:10066000000130463146BDE8F087B3FA83F6002E2C
:100670004AD18B4202D3824200F2F980841A61EBA4
:10068000030301209E46002DE0D0C5E9004EDDE7C2
:1006900002B9FFDEB2FA82F2002A40F09280A1EBAA
:1006A0000C014FEA1C471FFA8CFE0126200CB1FBFF
:1006B000F7F307FB131140EA01410EFB03F08842F8
:1006C00008D91CEB010103F1FF3802D2884200F285
:1006D000CB804346091AA4B2B1FBF7F007FB101117
:1006E00044EA01440EFB00FEA64508D91CEB0404B5
:1006F00000F1FF3102D2A64500F2BB800846A4EB10
:100700000E0440EA03409CE7C6F12007B34022FAFA
:1007100007FC4CEA030C20FA07F401FA06F31C4329
:10072000F9404FEA1C4900FA06F3B1FBF9F8200C36
:100730001FFA8CFE09FB181140EA014108FB0EF07C
:10074000884202FA06F20BD91CEB010108F1FF3ACC
:1007500080F08880884240F28580A8F102086144D8
:10076000091AA4B2B1FBF9F009FB101144EA0141E6
:1007700000FB0EFE8E4508D91CEB010100F1FF3491
:100780006CD28E456AD90238614440EA0840A0FB29
:100790000294A1EB0E01A142C846A64656D353D0FF
:1007A0005DB1B3EB080261EB0E0101FA07F722FA23
:1007B00006F3F1401F43C5E9007100263146BDE84C
:1007C000F087C2F12003D8400CFA02FC21FA03F3AF
:1007D000914001434FEA1C471FFA8CFEB3FBF7F030
:1007E00007FB10360B0C43EA064300FB0EF69E4255
:1007F00004FA02F408D91CEB030300F1FF382FD2EE
:100800009E422DD9023863449B1B89B2B3FBF7F695
:1008100007FB163341EA034106FB0EF38B4208D96E
:100820001CEB010106F1FF3816D28B4214D9023EAF
:100830006144C91A46EA004638E72E46284605E7CD
:100840000646E3E61846F8E64B45A9D2B9EB02089E
:1008500064EB0C0E0138A3E74646EAE7204694E72E
:100860004046D1E7D0467BE7023B614432E7304661
:1008700009E76444023842E7704700BF0000000007
:1008800090F800F06DE9024520F007016FF0000CD0
:1008900010F0070491F820F040F049804FF0000478
:1008A0006FF00700D1E9002391F840F000F1080053
:1008B00082FA4CF2A4FA8CF283FA4CF3A2FA8CF38B
:1008C0004BBBD1E9022382FA4CF200F10800A4FAF2
:1008D0008CF283FA4CF3A2FA8CF3E3B9D1E9042346
:1008E00082FA4CF200F10800A4FA8CF283FA4CF37D
:1008F000A2FA8CF37BB9D1E9062301F1200182FA37
:100900004CF200F10800A4FA8CF283FA4CF3A2FA3C
:100910008CF3002BC6D0002A04BF04301A4612BA4A
:10092000B2FA82F2FDE8024500EBD2007047D1E94D
:10093000002304F00305C4F100004FEAC50514F0DC
:10094000040F91F840F00CFA05F562EA05021CBFAD
:1009500063EA050362464FF00004A9E700000000C7
:1009600001F0FF01102A2BDB10F0070F08D010F860
:10097000013B013A8B422DD010F0070F42B3F6D164
:10098000F0B441EA012141EA014122F007047FF07D
:1009900000070023F0E80256083C85EA010586EAD4
:1009A000010685FA47F5A3FA87F586FA47F6A5FA10
:1009B00087F68EB9EED1F0BC01F0FF0102F007021C
:1009C00032B110F8013B013A83EA010313B1F8D1C7
:1009D0000020704701387047002D06BF35460338A8
:1009E000073815F0010F07D1013015F4807F02BFE1
:1009F000013015F4C03F0130F0BC0138704700BF32
:100A0000844641EA000313F003036DD1403A41D319
:100A100051F8043B40F8043B51F8043B40F8043BD8
:100A200051F8043B40F8043B51F8043B40F8043BC8
:100A300051F8043B40F8043B51F8043B40F8043BB8
:100A400051F8043B40F8043B51F8043B40F8043BA8
:100A500051F8043B40F8043B51F8043B40F8043B98
:100A600051F8043B40F8043B51F8043B40F8043B88
:100A700051F8043B40F8043B51F8043B40F8043B78
:100A800051F8043B40F8043B51F8043B40F8043B68
:100A9000403ABDD2303211D351F8043B40F8043B08
:100AA00051F8043B40F8043B51F8043B40F8043B48
:100AB00051F8043B40F8043B103AEDD20C3205D318
:100AC00051F8043B40F8043B043AF9D2043208D010
:100AD000D2071CBF11F8013B00F8013B01D30B8882
:100AE00003806046704700BF082A13D38B078DD060
:100AF00010F003038AD0C3F10403D21ADB071CBF32
:100B000011F8013B00F8013B80D331F8023B20F89B
:100B1000023B7BE7043AD9D3013A11F8013B00F8D4
:100B2000013BF9D20B7803704B7843708B7883705C
:100B30006046704770B54FF0FF0C4CF4E06C1CEA57
:100B400011541DBF1CEA135594EA0C0F95EA0C0FC3
:100B500000F0DEF82C4481EA030621EA4C5123EA36
:100B60004C5350EA013518BF52EA033541F4801165
:100B700043F4801338D0A0FB02CE4FF00005E1FB18
:100B800002E506F00042E0FB03E54FF00006E1FB62
:100B900003569CF0000F18BF4EF0010EA4F1FF04A5
:100BA000B6F5007F64F5407404D25FEA4E0E6D41E5
:100BB00046EB060642EAC62141EA55514FEAC520F6
:100BC00040EA5E504FEACE2EB4F1FD0C88BFBCF572
:100BD000E06F1ED8BEF1004F08BF5FEA500E50F123
:100BE000000041EB045170BD06F0004646EA0101E9
:100BF00040EA020081EA0301B4EB5C04C2BFD4EB1B
:100C00000C0541EA045170BD41F480114FF0000E13
:100C1000013C00F3AB8014F1360FDEBF002001F081
:100C2000004170BDC4F10004203C35DA0C341BDCFB
:100C300004F11404C4F1200500FA05F320FA04F0CD
:100C400001FA05F240EA020001F0004221F0004101
:100C500010EBD37021FA04F642EB06015EEA430E74
:100C600008BF20EAD37070BDC4F10C04C4F12005A4
:100C700000FA04F320FA05F001FA04F240EA020057
:100C800001F0004110EBD37041F100015EEA430E28
:100C900008BF20EAD37070BDC4F1200500FA05F248
:100CA0004EEA020E20FA04F301FA05F243EA0203C7
:100CB00021FA04F001F0004121FA04F220EA0200D6
:100CC00000EBD3705EEA430E08BF20EAD37070BD1C
:100CD00094F0000F0FD101F00046400041EB0101FC
:100CE00011F4801F08BF013CF7D041EA060195F0DE
:100CF000000F18BF704703F00046520043EB030398
:100D000013F4801F08BF013DF7D043EA0603704784
:100D100094EA0C0F0CEA135518BF95EA0C0F0CD08F
:100D200050EA410618BF52EA4306D1D181EA0301D5
:100D300001F000414FF0000070BD50EA410606BFCF
:100D40001046194652EA430619D094EA0C0F02D114
:100D500050EA013613D195EA0C0F05D152EA033659
:100D60001CBF104619460AD181EA030101F0004177
:100D700041F0FE4141F470014FF0000070BD41F0C0
:100D8000FE4141F4780170BD70B54FF0FF0C4CF49A
:100D9000E06C1CEA11541DBF1CEA135594EA0C0FB9
:100DA00095EA0C0F00F0A7F8A4EB050481EA030E06
:100DB00052EA03354FEA013100F088804FEA0333ED
:100DC0004FF0805545EA131343EA12634FEA0222BB
:100DD00045EA111545EA10654FEA00260EF000417C
:100DE0009D4208BF964244F1FD0404F5407402D2CE
:100DF0005B084FEA3202B61A65EB03055B084FEA5F
:100E000032024FF480104FF4002CB6EB020E75EB5B
:100E1000030E22BFB61A754640EA0C005B084FEA83
:100E20003202B6EB020E75EB030E22BFB61A754600
:100E300040EA5C005B084FEA3202B6EB020E75EB4B
:100E4000030E22BFB61A754640EA9C005B084FEAC3
:100E50003202B6EB020E75EB030E22BFB61A7546D0
:100E600040EADC0055EA060E18D04FEA051545EABF
:100E700016754FEA06164FEAC30343EA52734FEA68
:100E8000C2025FEA1C1CC0D111F4801F0BD141EAE1
:100E900000014FF000004FF0004CB6E711F4801F46
:100EA00004BF01430020B4F1FD0C88BFBCF5E06F26
:100EB0003FF6AFAEB5EB030C04BFB6EB020C5FEA36
:100EC000500C50F1000041EB045170BD0EF0004E8B
:100ED0004EEA113114EB5C04C2BFD4EB0C0541EABD
:100EE000045170BD41F480114FF0000E013C90E6BA
:100EF00045EA060E8DE60CEA135594EA0C0F08BF7E
:100F000095EA0C0F3FF43BAF94EA0C0F0AD150EA7C
:100F100001347FF434AF95EA0C0F7FF425AF10460F
:100F200019462CE795EA0C0F06D152EA03353FF437
:100F3000FDAE1046194622E750EA410618BF52EAB4
:100F400043067FF4C5AE50EA41047FF40DAF52EA88
:100F500043057FF4EBAE12E74FF0FF3C06E000BF25
:100F60004FF0010C02E000BF4FF0010C4DF804CD32
:100F70004FEA410C7FEA6C5C4FEA430C18BF7FEAF2
:100F80006C5C1BD001B050EA410C0CBF52EA430C20
:100F900091EA030F02BF90EA020F0020704710F1A0
:100FA000000F91EA030F58BF994208BF90422CBF2F
:100FB000D8176FEAE37040F0010070474FEA410C28
:100FC0007FEA6C5C02D150EA013C07D14FEA430C46
:100FD0007FEA6C5CD6D152EA033CD3D05DF8040BB7
:100FE000704700BF8446104662468C4619466346E9
:100FF00000E000BF01B5FFF7B7FF002848BF10F1C0
:10100000000F01BD4DF808EDFFF7F4FF0CBF012004
:1010100000205DF808FB00BF4DF808EDFFF7EAFF80
:1010200034BF012000205DF808FB00BF4DF808ED3B
:10103000FFF7E0FF94BF012000205DF808FB00BF30
:101040004DF808EDFFF7CEFF94BF012000205DF8BA
:1010500008FB00BF4DF808EDFFF7C4FF34BF0120C7
:1010600000205DF808FB00BF4FEA410C7FEA6C5C92
:1010700002D150EA013C0AD14FEA430C7FEA6C5C92
:1010800002D152EA033C02D14FF0000070474FF00A
:10109000010070474FEA410212F5001215D211D536
:1010A0006FF47873B3EB625212D94FEAC12343F065
:1010B000004343EA505311F0004F23FA02F018BFE7
:1010C000404270474FF00000704750EA013005D1B0
:1010D00011F0004008BF6FF0004070474FF0000073
:1010E000704700BF0000000008B5FFF7DBF90AA356
:1010F000D3E90023FFF71EFD0022054BFFF71AFD81
:101100000022044BFFF716FD41EC100B08BD00BF99
:101110000000303F00408F406666666666660A40A3
:10112000F8B555EC104B9FED1C1B08F0F9FA51EC8B
:10113000100B1DA3D3E90023FFF7FCFC02460B466E
:101140001BA1D1E90001FFF75FF806460F469FEDAE
:10115000141B45EC104B08F0E3FA51EC100B16A3EE
:10116000D3E90023FFF7E6FC02460B46304639463A
:10117000FFF74AF806460F4611A3D3E9002320469D
:101180002946FFF7D7FC02460B4630463946FFF7A3
:101190003BF841EC100BF8BD0000000000000840D7
:1011A0000000000000000040B97922FFD3161F3E66
:1011B0006688635DDCB26940B0E0163C3BE5CB3E3F
:1011C0008F2AD4E47338C73F10B504460E4B187805
:1011D0004FF47A73B3FBF0F30C4A1068B0FBF3F0F2
:1011E00000F05CFB68B90F2C01D901200AE0002255
:1011F00021464FF0FF3000F00BFB054B1C60002038
:1012000000E0012010BD00BF000000200800002009
:101210000400002008B50B4B1A6842F400721A60F3
:101220001A6842F480621A601A6842F480721A6086
:10123000032000F0DBFA0F20FFF7C6FF01F078FF74
:10124000002008BD003C0240034A1168034B1B7894
:101250000B441360704700BFD40900200000002039
:10126000014B1868704700BFD409002038B5044608
:10127000FFF7F6FF0546B4F1FF3F02D0044B1B78A1
:101280001C44FFF7EDFF401BA042FAD338BD00BF5E
:10129000000000204A4B5A6822F440325A605A68D3
:1012A00041680A435A600268536823F480735360AC
:1012B00002685368016943EA012353600268536876
:1012C00023F0407353600268536881680B43536096
:1012D0000268936823F40063936002689368C168AE
:1012E0000B439360826A374B9A4257D002689368E7
:1012F00023F07063936002689368816A0B43936084
:101300000268936823F04053936002689368C16A4F
:101310000B4393600268936823F0020393600268B2
:101320009368017E43EA4103936090F82030002BDC
:101330003FD00268536843F4006353600268536807
:1013400023F46043536001684B68426A013A43EA00
:1013500042334B600268D36A23F47003D36201689E
:10136000CB6AC269013A43EA0253CB6202689368CE
:1013700023F4007393600268936890F8301043EA96
:10138000412393600268936823F48063936002684A
:101390009368416943EA81239360704702689368C8
:1013A00023F0706393600268936823F04053936066
:1013B000B0E70268536823F400635360CAE700BFD4
:1013C000002301400100000F38B310B50446036C40
:1013D00043B1236C13F0100F0BD00120002384F8CD
:1013E0003C3010BD01F0C0FE0023636484F83C3043
:1013F000EFE7236C23F4885323F0020343F0020346
:1014000023642046FFF746FF00206064236C23F02E
:10141000030343F001032364E0E701207047000069
:1014200010B582B013460022019290F83C20012AA8
:1014300000F0AE800446012280F83C2002689068EB
:1014400010F0010F13D1906840F001009060534AF2
:101450001068534AA2FB0020800C00EB4000019072
:1014600002E001980138019001980028F9D1226822
:10147000906810F4807F03D0906820F480709060B2
:101480002268906810F0010F77D0206C20F4E060A3
:1014900020F0010040F480702064526812F4806FE4
:1014A00005D0226C22F4405242F480522264226C15
:1014B00012F4805F36D0626C22F006026264002271
:1014C00084F83C20A26B3748D063A26B3648106486
:1014D000A26B3648D06422686FF02200106020684A
:1014E000426842F0806242602068826842F4807202
:1014F000826020680A4600F14C01A06B00F0C8FA37
:101500002B4B5B6813F01F0F27D12368294A9342A6
:1015100011D002F58072934207D0274A934214D02B
:10152000002033E000226264C9E702F500725268CD
:1015300012F01F0FF1D19A6812F0405F2AD19A6819
:1015400042F080429A60002020E002F580725268EA
:1015500012F0100FEFD0002018E02368154A9342D4
:1015600001D0002012E09A6812F0405F14D19A680E
:1015700042F080429A60002008E0236C43F01003A0
:101580002364636C43F001036364002002B010BD68
:101590000220FBE70020F9E70020F7E70800002021
:1015A00083DE1B43E3150008C1150008CD150008B4
:1015B0000023014000200140002201407047704795
:1015C00008B5806BFFF7FBFF08BD704708B5806B5F
:1015D00040230364436C43F004034364FFF7F5FFC7
:1015E00008BD08B50346806B026C12F0500F25D180
:1015F000036C43F40073036403689A6812F0405F5D
:1016000019D1027EBAB9DA6A12F4700F03D09A685F
:1016100012F4806F0FD15A6822F020025A60036CD6
:1016200023F480730364036C13F4805F03D1036CB1
:1016300043F001030364FFF7C1FF08BD026C12F021
:10164000100F04D1826BD26C18469047F5E7FFF774
:10165000BCFFF2E730B482B00023019390F83C3035
:10166000012B00F0BB80012380F83C300B68092B74
:1016700041D90468E2689BB203EB43031E3B4FF081
:10168000070C0CFA03F322EA0303E3600468E26840
:101690000B8803EB43031E3B8D6805FA03F31343EA
:1016A000E3604B68062B3DD80468626B03EB830351
:1016B000053B4FF01F0C0CFA03F322EA03036363AC
:1016C0000468626B4B6803EB8303053BB1F800C011
:1016D0000CFA03F3134363630268414B9A4251D0FF
:1016E00002683F4B9A4256D0002380F83C3018469F
:1016F00002B030BC7047046822699BB203EB43031D
:101700004FF0070C0CFA03F322EA03032361046889
:1017100022690B8803EB43038D6805FA03F3134337
:101720002361BEE70C2B16D805682A6B03EB8303F5
:10173000233B1F2404FA03F322EA03032B63056807
:101740002A6B4B6803EB8303233B0C8804FA03F3F7
:1017500013432B63C0E70568EA6A03EB8303413B4D
:101760001F2404FA03F322EA0303EB620568EA6A22
:101770004B6803EB8303413B0C8804FA03F31343E8
:10178000EB62A9E70B68122BAAD1164A536843F4FF
:1017900080035360A4E70B68103B012BA4D8114AC7
:1017A000536843F4000353600B68102B9CD10E4B1D
:1017B0001B6802F1467202F52E3202F28332A2FB5E
:1017C00003239B0C03EB83035B00019302E0019B6B
:1017D000013B0193019B002BF9D185E7022087E7AC
:1017E000002001400023014008000020074AD36880
:1017F00023F4E0631B041B0C000200F4E0600343CD
:1018000043F0BF6343F40033D360704700ED00E062
:1018100000B5194BDB68C3F30223C3F1070CBCF11D
:10182000040F28BF4FF0040C03F1040EBEF1060FA5
:1018300018D9033B4FF0FF3E0EFA0CFC21EA0C01D5
:1018400099400EFA03F322EA0303194300280BDB45
:101850000901C9B200F1604000F5614080F8001351
:101860005DF804FB0023E5E700F00F000901C9B2B1
:10187000024B1954F4E700BF00ED00E014ED00E066
:10188000002807DB00F01F02400901239340024AB1
:1018900042F82030704700BF00E100E00138B0F1AD
:1018A000807F0BD24FF0E0235861054AF02182F887
:1018B00023100020986107221A61704701207047A9
:1018C00000ED00E030B405682C6824F480242C601E
:1018D000046863608368402B05D0036899600368DF
:1018E000DA6030BC704703689A600368D960F8E733
:1018F00010B40368D9B210390C4AA2FB0142120994
:101900000B4CA25CC2655F2909D923F47F7323F0D5
:10191000030304338365806D5DF8044B704723F443
:101920007F7323F003038365F5E700BFABAAAAAA80
:10193000F8A60008836A826992B9012B0AD0022BAB
:1019400002D00BB100207047C36A13F0807F28D10A
:1019500000207047C36AB3F1C07F24D000207047D5
:10196000B2F5005F09D0022B25D9032B25D1C36A1C
:1019700013F0807F23D100207047032B03D8DFE8CA
:1019800003F01404140A00207047C36A13F0807F28
:101990000DD100207047C36AB3F1C07F09D0002089
:1019A00070470120704701207047012070470120D7
:1019B00070470120704701207047002070470120C8
:1019C0007047000070B50446FFF74AFC002C5BD05E
:1019D0000546022384F83530002384F83430226829
:1019E000136823F00103136023681A6812F0010FD3
:1019F0000AD0FFF735FC431B052BF5D9202363657F
:101A0000032084F8350070BD1A68204810406168D2
:101A1000A2680A43E1680A4321690A4361690A43EB
:101A2000A1690A43E1690A43216A0A430243616AE0
:101A300004291ED01A602668756925F00705636AB7
:101A40001D43042B07D1A36A1D43E36A1BB1204643
:101A5000FFF770FF90B975612046FFF749FFE26D0F
:101A60003F239340836000206065012384F8353074
:101A7000C9E7E16A206B01430A43DBE74023636562
:101A8000012084F83500BEE70120BCE73F8010F05C
:101A900038B50446856D90F8340001282BD001201C
:101AA00084F8340094F83500C0B2012804D0002333
:101AB00084F83430022038BD022084F8350000203C
:101AC00060652046FFF7FEFEE26D3F239340AB606A
:101AD0002268136843F016031360236C23B1226855
:101AE000136843F0080313602268136843F001038E
:101AF00013600020DFE70220DDE770B50446866D45
:101B0000FFF7AEFB94F83530DBB2022B06D0802312
:101B10006365002384F83430012070BD05462268D7
:101B2000136823F0160313602268536923F08003BF
:101B30005361236CE3B12268136823F00803136038
:101B40002268136823F00103136023681B6813F0F5
:101B5000010F11D0FFF784FB431B052BF5D9202380
:101B60006365032084F83500002384F83430D4E71B
:101B7000A36C002BDFD1E3E7E26D3F239340B3601A
:101B8000012384F83530002084F83400C5E790F84C
:101B90003530DBB2022B03D0802343650120704730
:101BA000052380F835300268136823F001031360C1
:101BB00000207047F0B583B0044600230193724BB8
:101BC0001D68724BA3FB0535AD0A876D3E68C26D7B
:101BD00008239340334210D003681A6812F0040FB0
:101BE0000BD01A6822F004021A60C26D08239340D9
:101BF000BB60436D43F001034365E26D01239340F5
:101C0000334209D02268526912F0800F04D0BB60C1
:101C1000636D43F002036365E26D04239340334236
:101C200009D02268126812F0020F04D0BB60636D05
:101C300043F004036365E26D10239340334224D0E4
:101C40002268126812F0080F1FD0BB6023681A6860
:101C500012F4802F0DD01B6813F4002F04D1236CD5
:101C60009BB12046984710E0A36C73B1204698477B
:101C70000BE01A6812F4807F03D11A6822F0080280
:101C80001A60236C0BB120469847E26D20239340E5
:101C9000334255D02268126812F0100F50D0BB604A
:101CA00094F83530DBB2052B0ED023681A6812F495
:101CB000802F33D01B6813F4002F2AD1636C002BC4
:101CC0003ED0204698473BE02268136823F0160375
:101CD00013602268536923F080035361236CA3B11E
:101CE0002268136823F008031360E26D3F239340DA
:101CF000BB60012384F83530002384F83430236D31
:101D0000002B3FD0204698473CE0A36C002BE7D146
:101D1000EBE7E36BA3B12046984711E01A6812F491
:101D2000807F09D11A6822F010021A60012384F81A
:101D30003530002384F83430E36B0BB120469847EC
:101D4000636DFBB1636D13F0010F17D0052384F8A9
:101D500035302268136823F001031360019B0133BF
:101D60000193AB4204D823681B6813F0010FF5D12F
:101D7000012384F83530002384F83430E36C0BB150
:101D80002046984703B0F0BD08000020B5814E1BE7
:101D900000230F2B00F2E48070B582B060E085680C
:101DA0005E000324B44025EA0405CC68B4402C430B
:101DB0008460456825EA02054C68C4F300129A4025
:101DC0002A4342605AE0DC08083450F8246003F0EB
:101DD000070295000F22AA4026EA020E0A69AA40CD
:101DE00042EA0E0240F824205CE0072200E00022D4
:101DF00002FA0EF22A4302345A4D45F824205A4A78
:101E000094686FEA0C0224EA0C054E6816F4801FF1
:101E100001D04CEA0405544CA560E46802EA0405CC
:101E20004E6816F4001F01D04CEA04054E4CE560E4
:101E3000646802EA04054E6816F4003F01D04CEADB
:101E40000405494C6560246822404D6815F4803FC4
:101E500001D04CEA0402444C226001330F2B7DD8A0
:101E600001229A400C6804EA020C32EA0404F4D11C
:101E70004C6804F00304013C012C90D94A6802F03C
:101E80000302032A09D0C4685D000322AA4024EAA1
:101E900002048A68AA402243C2604A6802F0030230
:101EA000022A90D004684FEA430E032202FA0EF28F
:101EB00024EA02044A6802F0030202FA0EF2224304
:101EC00002604A6812F4403FC7D000220192274ABC
:101ED000546C44F480445464526C02F48042019285
:101EE000019A9C08A51C1F4A52F8255003F00302D2
:101EF0004FEA820E0F2202FA0EF225EA02051C4A70
:101F000090423FF474AF02F5806290421AD002F51D
:101F10008062904218D002F58062904216D002F59D
:101F20008062904214D002F58062904212D002F595
:101F30008062904210D002F5806290423FF455AF2B
:101F4000082255E7012253E7022251E703224FE717
:101F500004224DE705224BE7062249E702B070BD97
:101F6000704700BF00380140003C0140003802408B
:101F700000000240002800F0E08170B582B0044605
:101F8000036813F0010F3BD09F4B9B6803F00C03D9
:101F9000042B2CD09C4B9B6803F00C03082B21D006
:101FA0006368B3F5803F4FD0B3F5A02F52D0964B66
:101FB0001A6822F480321A601A6822F480221A60A9
:101FC0006368002B50D0FFF74BF905468E4B1B681A
:101FD00013F4003F14D1FFF743F9401B6428F5D9EF
:101FE0000320B1E1884B5B6813F4800FD8D0864B97
:101FF0001B6813F4003F03D06368002B00F09F813F
:10200000236813F0020F54D07F4B9B6813F00C0F22
:102010003ED07D4B9B6803F00C03082B33D0E36864
:10202000002B68D0794B01221A60FFF719F9054699
:10203000754B1B6813F0020F54D1FFF711F9401BC9
:102040000228F5D903207FE16F4A136843F48033F7
:102050001360B5E76C4B1A6842F480221A601A6864
:1020600042F480321A60ABE7FFF7FAF80546664B98
:102070001B6813F4003FC3D0FFF7F2F8401B64283D
:10208000F5D9032060E1604B5B6813F4800FC6D183
:102090005D4B1B6813F0020F03D0E368012B40F087
:1020A0005081594A136823F0F803216943EAC103B8
:1020B0001360236813F0080F42D063696BB3534B6E
:1020C0000122C3F8802EFFF7CBF805464E4B5B6F1D
:1020D00013F0020F34D1FFF7C3F8401B0228F5D9E3
:1020E000032031E1484A136823F0F803216943EAE9
:1020F000C1031360DDE7454B00221A60FFF7B0F81B
:102100000546414B1B6813F0020FD2D0FFF7A8F829
:10211000401B0228F5D9032016E13C4B0022C3F8EE
:10212000802EFFF79DF80546374B5B6F13F0020FCB
:1021300006D0FFF795F8401B0228F5D9032003E1EC
:10214000236813F0040F77D02F4B1B6C13F0805FC4
:1021500033D1002301932C4B1A6C42F080521A6445
:102160001B6C03F080530193019B0125284B1B68D6
:1021700013F4807F23D0A368012B34D0052B38D0F3
:10218000214B1A6F22F001021A671A6F22F0040223
:102190001A67A368002B3DD0FFF762F806461A4B7A
:1021A0001B6F13F0020F46D1FFF75AF8801B41F264
:1021B00088339842F3D90320C6E00025D6E7144AB5
:1021C000136843F480731360FFF74AF80646104B18
:1021D0001B6813F4807FCED1FFF742F8801B0228E2
:1021E000F5D90320B0E0084A136F43F001031367E9
:1021F000CFE7054B1A6F42F004021A671A6F42F0DC
:1022000001021A67C5E700BF0038024000004742DC
:1022100000700040FFF724F80646524B1B6F13F086
:10222000020F08D0FFF71CF8801B41F28833984258
:10223000F3D9032088E0EDB9A369002B00F0838077
:10224000484A926802F00C02082A51D0022B17D09B
:10225000454B00221A66FFF703F80446414B1B6802
:1022600013F0007F42D0FEF7FBFF001B0228F5D9D8
:10227000032069E03B4A136C23F080531364DBE7CF
:10228000394B00221A66FEF7EBFF0546354B1B68FB
:1022900013F0007F06D0FEF7E3FF401B0228F5D9BC
:1022A000032051E0E369226A1343626A43EA82131E
:1022B000A26A5208013A43EA0243E26A43EA02632D
:1022C000284A5360284B01221A66FEF7C9FF0446CC
:1022D000244B1B6813F0007F06D1FEF7C1FF001BE3
:1022E0000228F5D903202FE000202DE000202BE06C
:1022F000012B2BD01B4B5B6803F48001E2699142F8
:1023000026D103F03F02216A8A4223D1616A47F64F
:10231000C0721A40B2EB811F1ED103F44031A26A91
:102320005208013AB1EB024F18D103F07063E26A30
:10233000B3EB026F14D1002006E0012070470120AA
:1023400002E0012000E0002002B070BD0120FBE7A8
:102350000120F9E70120F7E70120F5E70120F3E785
:102360000120F1E7003802400000474208B5314B38
:102370009B6803F00C03042B57D0082B57D12D4B2F
:102380005A6802F03F025B6813F4800F2AD0294B91
:102390005968C1F3881C4FEA4C11B1EB0C006EEB8D
:1023A0000E0E4FEA8E1343EA90638101091A63EB24
:1023B0000E03DB0043EA5173C90011EB0C0C43F12F
:1023C0000003590200234FEA4C2041EADC51FEF79A
:1023D000D3F8184B5B68C3F3014301335B00B0FBD8
:1023E000F3F025E0134B5968C1F3881C4FEA4C11F8
:1023F000B1EB0C006EEB0E0E4FEA8E1343EA9063C6
:102400008101091A63EB0E03DB0043EA5173C90033
:1024100011EB0C0C43F10003990200234FEA8C20CE
:1024200041EA9C51FEF7A8F8D3E7034800E00348CF
:1024300008BD00BF0038024000127A000024F400FA
:10244000002800F09B8070B50D4604464F4B1B687A
:1024500003F007038B4208D2CBB24C4A13701368C7
:1024600003F007038B4240F08B80236813F0020FC8
:1024700017D013F0040F04D0454A936843F4E05397
:102480009360236813F0080F04D0414A936843F423
:10249000604393603E4A936823F0F003A1680B43C6
:1024A0009360236813F0010F32D06368012B21D0B1
:1024B0009A1E012A25D9364A126812F0020F61D0FD
:1024C00033498A6822F0030213438B60FEF7C8FE8B
:1024D00006462F4B9B6803F00C036268B3EB820F38
:1024E00016D0FEF7BDFE801B41F288339842F0D92A
:1024F000032042E0264A126812F4003FE0D1012096
:102500003BE0234A126812F0007FD9D1012034E069
:102510001E4B1B6803F00703AB4207D9EAB21B4B03
:102520001A701B6803F00703AB422DD1236813F028
:10253000040F06D0164A936823F4E053E1680B4376
:102540009360236813F0080F07D0114A936823F4AF
:102550006043216943EAC1039360FFF707FF0C4B17
:102560009B68C3F303130B4AD35CD8400A4B186033
:102570000A4B1868FEF728FE002070BD0120704746
:102580000120FAE70120F8E70120F6E7003C0240CD
:10259000003802404CA7000808000020040000207A
:1025A000014B1868704700BF0800002008B5FFF70E
:1025B000F7FF044B9B68C3F38223034AD35CD840E4
:1025C00008BD00BF003802405CA7000808B5FFF74F
:1025D000E7FF044B9B68C3F34233034AD35CD84004
:1025E00008BD00BF003802405CA70008026802F185
:1025F0000C0353E8003F23F490730C3242E800319F
:102600000029F3D1026802F1140353E8003F23F0DC
:102610000103143242E800310029F3D1036B012B8E
:1026200005D0202380F83E30002303637047026802
:1026300002F10C0353E8003F23F010030C3242E890
:1026400000310029F3D1ECE790F83D30DBB2212BCB
:1026500001D0022070478368B3F5805F17D0036A0A
:102660005A1C02621A7803685A60C38C9BB2013B01
:102670009BB2C3844BB90268D36823F08003D36054
:102680000268D36843F04003D360002070470369B9
:10269000002BE4D1036A1B880268C3F3080353606C
:1026A000036A02330362E0E738B50446026813693F
:1026B00023F44053C1680B431361836802691343D9
:1026C00042691343C2691A430168CB6823F4164375
:1026D00023F00C031343CB600268536923F4407367
:1026E00081690B4353610368314A934206D002F576
:1026F0008062934202D0FFF759FF01E0FFF766FFC7
:10270000E369B3F5004F29D00021031849411B1894
:1027100041F10001C90041EA5371DB0018186368F8
:102720004FEA83024FEA937341F10001FDF724FF62
:10273000204DA5FB00325109642303FB11031B014B
:102740003233A5FB03235B0903F0F00202EB011215
:1027500003F00F03216813448B6038BD0023021877
:1027600043EB0301121841F10001C90041EA527123
:10277000D200101841F10001626892185B41FDF728
:10278000FBFE0C4DA5FB00325109642303FB110332
:10279000DB003233A5FB03235B095A0002F4F87215
:1027A00002EB011203F00703216813448B60D4E7A6
:1027B000001001401F85EB512DE9F84305460F46F7
:1027C00016469946DDF820802C68246837EA040311
:1027D0000CBF4FF0010C4FF0000CB4452DD1B8F1F7
:1027E000FF3FF1D0B8F1000F05D0FEF739FDA0EBA7
:1027F00009004045E8D92A6802F10C0353E8003F7C
:1028000023F4D0730C3242E800310029F3D12A6856
:1028100002F1140353E8003F23F00103143242E8AD
:1028200000310029F3D1202385F83D3085F83E3072
:10283000002385F83C30032000E00020BDE8F88349
:1028400058B310B5044690F83D300BB3242384F8F8
:102850003D302268D36823F40053D3602046FFF74D
:1028600023FF2268136923F490431361226853699C
:1028700023F02A0353612268D36843F40053D360E2
:1028800000202064202384F83D3084F83E3010BDC1
:1028900080F83C3000F0C0FCD8E7012070472DE9FB
:1028A000F04182B01E4690F83D30DBB2202B54D16F
:1028B00004460D469046002953D0002A53D090F884
:1028C0003C30012B51D0012380F83C3000230364BD
:1028D000212380F83D30FEF7C3FC0746A4F824808E
:1028E000A4F82680A368B3F5805F05D04FF00008F8
:1028F000002384F83C3012E0236913B14FF0000844
:10290000F6E7A8460025F3E738F8023B2268C3F350
:1029100008035360E28C92B2013A92B2E284E38CF3
:102920009BB273B100963B46002280212046FFF700
:1029300043FFE0B9002DE7D015F8012B23685A605A
:10294000E8E700963B46002240212046FFF734FF8F
:1029500078B9202384F83D3000E0022002B0BDE8C1
:10296000F0810120FAE70120F8E70220F6E70320D2
:10297000F4E70320F2E72DE9F04182B01E4690F81B
:102980003E30DBB2202B5CD104460D469046002938
:102990005BD0002A5BD090F83C30012B59D001234A
:1029A00080F83C3000230364222280F83E20036339
:1029B000FEF756FC0746A4F82C80A4F82E80A368E6
:1029C000B3F5805F05D04FF00008002384F83C3059
:1029D00017E0236913B14FF00008F6E7A846002579
:1029E000F3E723685B68C3F3080328F8023B03E0BE
:1029F00023685B682B700135E28D92B2013A92B286
:102A0000E285E38D9BB2BBB100963B4600222021BC
:102A10002046FFF7D1FEF0B9002DE2D0A368B3F550
:102A2000805FE5D013B92369002BE1D023685B6890
:102A300003F07F032B70DEE7202384F83E30002074
:102A400000E0022002B0BDE8F0810120FAE7012099
:102A5000F8E70220F6E70320F4E7704708B50168BD
:102A6000CA6822F04002CA60202280F83D20FFF7A9
:102A7000F4FF002008BD7047704708B5806B002345
:102A8000C385C384FFF7F8FF08BD704790F83E3058
:102A9000DBB2222B67D18368B3F5805F4DD0826AA9
:102AA000B3F5805F04D0002B54D10369002B51D1C2
:102AB00003685B681370836A01338362C38D9BB2C2
:102AC000013B9BB2C385002B4FD100B583B0026898
:102AD000D36823F02003D3600268D36823F48073A3
:102AE000D3600268536923F001035361202380F807
:102AF0003E30036B012B33D100230363026802F1E4
:102B00000C0353E8003F23F010030C3242E800317D
:102B10000029F3D103681A6812F0100F06D00022C2
:102B200001921A6801925B680193019B818DFFF706
:102B3000ACFF002003B05DF804FB0269002AAED1AF
:102B4000826A03685B68C3F308031380836A0233F5
:102B50008362B3E703685B6803F07F031370AAE73F
:102B6000FFF789FFE5E7022070470020704700006B
:102B700030B583B0044602681368D068516913F019
:102B80000F0505D113F0200F02D010F0200F19D13E
:102B90002DB111F0010119D110F4907F16D1216BE4
:102BA00001297DD013F0800F03D010F0800F40F08A
:102BB000158113F0400F03D010F0400F40F0128148
:102BC00003B030BD2046FFF761FFF9E713F0010FB6
:102BD00006D010F4807F03D0226C42F00102226400
:102BE00013F0040F04D019B1226C42F002022264E7
:102BF00013F0020F04D019B1226C42F004022264D7
:102C000013F0080F07D010F0200F00D119B1226C7B
:102C100042F008022264226C002AD1D013F0200F67
:102C200002D010F0200F29D123685B6903F0400324
:102C3000226C12F0080F00D163B32046FFF7D6FCD8
:102C400023685B6913F0400F20D0226802F114035F
:102C500053E8003F23F04003143242E800310029DA
:102C6000F3D1A36B73B1614A1A65A06BFEF78FFFB6
:102C70000028A5D0A06B036D9847A1E72046FFF779
:102C800005FFD1E72046FFF7F7FE99E72046FFF75B
:102C9000F3FE95E72046FFF7EFFE002323648FE75E
:102CA00013F0100F3FF47EAF10F0100F3FF47AAF27
:102CB000002301931368019353680193019B5369A7
:102CC00013F0400F50D0A26B13685B689BB2002BCF
:102CD0003FF476AFA18D99427FF672AFE385D36959
:102CE000B3F5807F37D0226802F10C0353E8003F30
:102CF00023F480730C3242E800310029F3D12268BA
:102D000002F1140353E8003F23F00103143242E8B8
:102D100000310029F3D1226802F1140353E8003F87
:102D200023F04003143242E800310029F3D120237C
:102D300084F83E3000232363226802F10C0353E839
:102D4000003F23F010030C3242E800310029F3D198
:102D5000A06BFEF7D2FEA18DE38D9BB2C91A89B29A
:102D60002046FFF792FE2BE7A18DE38D9BB2C91A97
:102D700089B2E38D9BB2002B3FF422AF00293FF4D0
:102D80001FAF226802F10C0353E8003F23F4907355
:102D90000C3242E800300028F3D1226802F114031B
:102DA00053E8003F23F00103143242E800300028CA
:102DB000F3D1202384F83E3000232363226802F1FC
:102DC0000C0353E8003F23F010030C3242E80030BC
:102DD0000028F3D12046FFF758FEF1E62046FFF722
:102DE00033FCEDE62046FFF739FEE9E67B2A0008D2
:102DF00084B000220192104B196B41F00401196359
:102E0000196B01F00401019101990292196B41F0D3
:102E100080011963196B01F08001029102990392FC
:102E20001A6B42F001021A631B6B03F00103039358
:102E3000039B04B0704700BF0038024000B583B068
:102E400000210191094B1A6B42F480021A631B6B3B
:102E500003F480030193019B0A463820FEF7D8FC57
:102E60003820FEF70DFD03B05DF804FB003802408A
:102E700072B6FEE708B50A480A4B03604FF4E13327
:102E8000436000238360C36003610C22426183615D
:102E9000C361FFF7D5FC00B908BDFFF7E9FF00BF2C
:102EA000800A00200010014000B585B00023009387
:102EB0000193029303931448144A02604FF4803242
:102EC0004260836003610122027680F82030C36291
:102ED0000F498162C360C26180F830204261FEF711
:102EE00073FA68B905230093012301930323029326
:102EF00069460548FEF7AEFB20B905B05DF804FB56
:102F0000FFF7B6FFFFF7B4FFD8090020002001400B
:102F10000100000F00B595B03022002108A800F094
:102F200069FA00230393049305930693079301938F
:102F3000214A116C41F080511164126C02F08052F0
:102F40000192019A02931D4B1A6842F480421A6062
:102F50001B6803F480430293029B012308934FF400
:102F60008033099302230E934FF480020F920822BC
:102F700010924FF4A872119212930423139308A88D
:102F8000FEF7F8FF98B90F2303930223049300235D
:102F900005934FF4A05306934FF4805307930521F4
:102FA00003A8FFF74DFA20B915B05DF804FBFFF751
:102FB0005FFFFFF75DFF00BF003802400070004078
:102FC000F0B583B00023ADF80630FEF723F9FFF724
:102FD000A1FFFFF70DFFFFF731FFFFF74BFFFFF7F3
:102FE00063FF154800F034F801220DF10601134883
:102FF000FEF716FABDF80600FEF776F857EC106BF0
:10300000FEF78EF855EC104BBDF806100C4800F09A
:1030100043FA32463B460B4800F03EFA22462B4626
:10302000094800F039FA094800F098FA4FF4FA70AC
:10303000FEF71CF9DEE700BF800A0020D809002057
:1030400000A7000814A7000830A7000848A7000838
:1030500008B5054B1860054B186800230222194675
:10306000806800F083FA08BDC40A00200C0000202C
:10307000022801D80120704708B500F091F9092312
:103080000360002008BD000010B5013801280AD8EF
:1030900014464FF0FF3392B207480068FFF7FFFB7A
:1030A00040B9204610BD00F07BF9092303604FF0C2
:1030B000FF30F7E70520F5E7C40A0020022801D811
:1030C0000020704708B500F06BF9092303604FF04A
:1030D000FF3008BD08B500F063F9092303604FF025
:1030E000FF3008BD08B548B94FF0FF33012208484A
:1030F0000068FFF740FC40B9012008BD00F050F91E
:10310000092303604FF0FF30F7E70520F5E700BF24
:10311000C40A002008B5022804D84FF400534B60BD
:10312000002008BD00F03CF909230360F8E7000027
:1031300082B0002100910B4B5A6C42F480425A64D9
:103140005A6C02F480420092009A01911A6C42F08B
:1031500080521A641B6C03F080530193019B02B0F0
:10316000704700BF0038024030B589B00023039398
:103170000493059306930793026803F1804303F5D4
:1031800090339A4201D009B030BD04460025019524
:1031900003F58C335A6C42F480725A645A6C02F410
:1031A00080720192019A02951A6B42F001021A6331
:1031B0001B6B03F001030293029B20230393032361
:1031C000049303A91148FEF7E3FD1148114B036076
:1031D00045608560C5604FF4806303614FF48053A0
:1031E00043614FF4804383614FF48073C3614FF4B4
:1031F000003303624562FEF7E5FB18B9044BA36395
:103200009C63C0E7FFF734FEF8E700BF0000024010
:10321000200A00201064024010B588B000230393F8
:103220000493059306930793026803F1804303F523
:1032300088339A4201D008B010BD0024019403F5F0
:1032400094335A6C42F010025A645A6C02F0100225
:103250000192019A02941A6B42F001021A631B6BED
:1032600003F001030293029B4FF4C0630393022314
:103270000493032306930723079303A90548FEF746
:1032800087FD224621462520FEF7C2FA2520FEF7BB
:10329000F7FAD0E700000240FEE7FEE7FEE7FEE7B0
:1032A000FEE770477047704708B5FDF7CDFF08BDD2
:1032B00008B50248FFF75CFC08BD00BF800A00208B
:1032C00008B50248FEF776FC08BD00BF200A0020C2
:1032D0000120704708B500F063F8162303604FF033
:1032E000FF3008BD08B54FF0FF31FFF7F3FFFEE7F1
:1032F00010B503460C4A0D490D48006840B10C4812
:1033000000680344521A934206D8094A136010BD5C
:103310000748084C0460F2E700F042F80C23036011
:103320004FF0FF30F3E700BF000002200004000070
:10333000C80A0020180B0020034AD2F8883043F452
:103340007003C2F88830704700ED00E0DFF834D039
:103350000D480E490E4A002302E0D458C4500433ED
:10336000C4188C42F9D30B4A0B4C002301E01360C4
:103370000432A242FBD3FFF7DFFF00F017F8FFF79C
:103380001FFE70470000022000000020B809002046
:103390007CAB0008B8090020140B0020FEE70000F9
:1033A000014B1868704700BF0C00002070B50D4E2F
:1033B0000D4D761BB61006D0002455F8043B0134A1
:1033C0009847A642F9D1094E094D761B07F086F9B8
:1033D000B61006D0002455F8043B01349847A642A5
:1033E000F9D170BD70AB000870AB000878AB000875
:1033F00070AB0008830730B548D0541E002A3FD078
:10340000CAB2034601E0013C3AD303F8012B9D0701
:10341000F9D1032C2DD9CDB245EA05250F2C45EA6B
:10342000054536D9A4F1100222F00F0C03F1200E4D
:10343000E6444FEA121C03F1100242E9045542E946
:10344000025510327245F8D10CF1010214F00C0F44
:1034500003EB021204F00F0C13D0ACF1040323F0C1
:1034600003030433134442F8045B9342FBD10CF092
:1034700003042CB1CAB21C4403F8012B9C42FBD1BB
:1034800030BD64461346002CF4D1F9E703461446D8
:10349000BFE71A46A446E0E70FB400B5074983B07A
:1034A00004AB086853F8042B8168019300F038F9E5
:1034B00003B05DF804EB04B0704700BF0C000020BF
:1034C00070B5054688B008460C46FDF7D9F9224E7E
:1034D000AA6B059001214318CDE9066104A80221D9
:1034E00004940393AC680190029122B3636E13F0CD
:1034F000010FB4F90C309AB201D1980525D5910489
:1035000006D4626E43F4005322F40052A381626633
:10351000284601AA214603F083FA636E002814BFEF
:103520004FF0FF350A25DA0702D4A3899B0506D59B
:10353000284608B070BD284603F074F8D6E7A06DA1
:1035400003F014FC284608B070BDA06D03F00CFC1D
:10355000B4F90C309AB2D2E768A70008024B0146D2
:103560001868FFF7ADBF00BF0C0000202DE9F04345
:10357000694CD4F8008083B004460E4617461D46B9
:10358000B8F1000F03D0D8F83830002B77D0022FD5
:1035900005D0012F00F2AC80002DC0F2A980636E2F
:1035A000DA0752D52146404603F008F8216B41B1B5
:1035B00004F14003994202D0404603F02BF9002366
:1035C0002363B4F90CC000231CF0800FA361636077
:1035D00064D12CF44A6C2CF0030C022FA4F80CC01C
:1035E0006AD001AB6A462146404603F031FCA3890C
:1035F0001843A081002D2FD0002E2ED0D8F83830BF
:10360000002B38D0009B2660AB42B4F90C301CBFB5
:1036100043F40063A381012F04BF43F00103A3819E
:103620009AB213F00803C4E904652CD0D1075DD524
:103630006D42A561656E002315F00105A36027D0DA
:103640000025284603B0BDE8F083A3899B05A9D4D3
:10365000A06D03F089FBA5E7009D284603F028FC38
:103660000646002847D0A38943F08003A381D8F8F9
:103670003830002BC6D1404602F0D4FFC2E74046A6
:1036800002F0D0FF83E7A360656E15F00105D7D186
:10369000930524D5284603B0BDE8F0832169404650
:1036A00003F0B8F8B4F90CC02CF44A6C2CF0030CFD
:1036B000022FA4F80CC094D10025002204F143038A
:1036C000A2600122C4E904322360636E4CF0020C54
:1036D000D807A4F80CC0DDD41CF4007FDAD1A06DAB
:1036E00003F044FB284603B0BDE8F083A560CBE7B8
:1036F0004FF0FF35CEE7DDF80090A94504D04846ED
:1037000003F0D6FB064620B9B4F90CC04FF0FF35E4
:10371000D3E74D46A7E700BF0C00002000000000E3
:103720002DE9F04F2DED0A8BCFB01C460AEE101A92
:1037300091460AEE900A054603F00EFB03681393C8
:1037400018460994FDF79CF812901DB1AB6B002B45
:1037500000F048821AEE102A536EDB0740F14781D1
:10376000B2F90C309AB2960409D41AEE101A43F446
:1037700000538B819AB24B6E23F400534B661507AE
:1037800040F1CC801AEE103A1B69002B00F0C68085
:1037900002F01A030A2B00F0D2804D469FED9C7B6D
:1037A0002B78002425AACDE92344CDE91544CDE9A1
:1037B00017448DED107B1AEE909A0E94229290464B
:1037C00014940694002B00F0B081AB4604E01BF883
:1037D000013F002B00F0CD80252BF8D1BBEB050677
:1037E00040F0CB809BF80030002B00F09E8100233E
:1037F0004FF0FF329BF801708DF86B3005930BF1A1
:10380000010B04929A462B2420210BF1010BA7F106
:1038100020035A2B00F20081DFE813F00A03FE00B8
:10382000FE000503FE00FE00FE006A00FE00FE0032
:1038300076029E02FE008102A802FE00A3025B0047
:103840005B005B005B005B005B005B005B005B00A0
:10385000FE00FE00FE00FE00FE00FE00FE008E01E7
:10386000FE001602ED018E018E018E01FE00FE00AB
:10387000FE00FE000003FE00FE004502FE00FE000A
:10388000FE002002FE00C202FE00FE009907FE00BC
:10389000FE00FE00FE00FE00FE00FE00FE008E01A7
:1038A000FE001602EF018E018E018E01E602EF018D
:1038B000E801FE00F302FE0086024702D402E8019E
:1038C000FE0020027D007507FE00FE007907FE0065
:1038D0007D00A7F1300300221BF8017B02EB82027E
:1038E00003EB4202A7F13003092BF5D905928EE7CD
:1038F000484603F031FA436817931846FCF7C0FFB7
:1039000018900646484603F027FA8368159320214D
:10391000002E40F0E9869BF8007076E71AEE101A48
:103920001AEE900A1AEE105A01F002FD002841F03A
:103930002783AA8902F01A030A2B7FF42EAF1AEE0E
:10394000101AB1F90E30002BFFF627AF4B6ED907D6
:1039500002D4920541F15A811AEE101A1AEE900A19
:1039600023464A464FB0BDEC0A8BBDE8F04F01F04C
:103970009FBCBBEB050600F0D880249B3344249306
:10398000239B0133072BC8E90056239305DC08F17C
:103990000808069B3344069324E71AEE101A22AA5D
:1039A000484604F065FC90B90DF19408F1E71AEE71
:1039B000101A22AA484604F05BFC002800F0A680FA
:1039C000089B23B11AEE900A194602F023FF1AEE63
:1039D000102A536ED80740F1FA8093895A0601F1F4
:1039E000D88206984FB0BDEC0A8BBDE8F08FB2F9D3
:1039F0000C309F059AB23FF5B6AE1AEE105AA86D7C
:103A000003F0B2F9B5F90C309AB2ACE6AFF300802E
:103A10000000000000000000002F00F0868000235E
:103A20008DF8D4708DF86B300122CDE90723039215
:103A300004930C930F930D9335AD1AF002020A9282
:103A400002D0039A023203921AF084020B9205D13B
:103A5000059A0399561A002E00F36883249C8BB1B3
:103A6000239B0DF16B0201330134C8F80020072BB2
:103A70004FF0010224942393C8F8042000F39F839D
:103A800008F108080A9B83B1239B1BAA0133023467
:103A9000C8F80020072B4FF0020224942393C8F8A3
:103AA000042000F3998308F108080B9B802B00F099
:103AB0006A82049B079A9E1A002E00F3AB821AF4C6
:103AC000807F40F00682079BC8F804301C44239B8B
:103AD000C8F800500133072B2494239300F3198373
:103AE00008F108081AF0040F05D0059B039A9D1AE7
:103AF000002D00F38583DDE9052303998A42ACBFDD
:103B00009B185B180693002C7FF451AF002323937E
:103B1000089B1BB10899484602F07CFE0DF1940801
:103B20005D462B78002B7FF450AE249B002B41F098
:103B30001B82002323934AE7099B073323F00703E3
:103B4000B3EC027B8DED107BDDE91012099322F0BE
:103B500000430BEE101A0BEE903A4FF0FF32B0EE2E
:103B60004B9AF0EE6B9AB74B51EC190BFDF77CFAC0
:103B7000002840F0E884B34B51EC190B4FF0FF32B2
:103B8000FDF754FA002840F0DE84DDE91001002240
:103B90000023FDF741FA002840F067879DF86B305D
:103BA000A94DAA4A2AF0800A0321472FC8BF15460B
:103BB000002208920391079104920C920F920D92A9
:103BC000002B3FF43AAF039A0132039235E7938911
:103BD00099053FF503AF1AEE104A906D03F0C6F851
:103BE000A389FBE6284602F01DFDB3E59BF80070B3
:103BF0004AF0200A09E64AF0100A1AF0200F099B41
:103C000000F04084073323F007031A465B6852F83C
:103C1000084B09921E46002BC0F24384049B0133DB
:103C200000F0BC822AF08003039354EA060340F0BC
:103C3000B782049B002B40F0B882DDF80CA0002373
:103C4000049307934EAD1FE1099A002352F8041B19
:103C50008DF86B308DF8D4100992E5E6099C54F884
:103C6000045B00268DF86B60002D00F08F85049BAF
:103C70005A1C00F051861A4631462846FCF770FE61
:103C80000890002801F02F81089B0496591B07918A
:103C900021EAE1719DF86B300994039108960C9626
:103CA0000F960D968CE74AF0100A1AF0200600F0E5
:103CB000C983099B073323F007035E6853F8084B59
:103CC00009932AF480630393002300228DF86B206C
:103CD000049A551C00F0C080039921F0800A54EA30
:103CE000060140F0B780002A40F00786002BA6D1DD
:103CF000039B13F00103079300F0148430238DF825
:103D000037310DF23715BFE0099B53F8042B0592AC
:103D1000002A80F2D583059A0993524205929BF8B6
:103D200000704AF0040A70E51AF0200F40F0D184C8
:103D30001AF0100F40F0E7851AF0400F40F0A98606
:103D40001AF4007F00F0DF85099B069953F8042BD5
:103D5000099311705D46E4E69BF800708DF86B40A6
:103D600053E59BF800704AF0800A4EE55A4612F877
:103D7000017B2A2F01F06F82A7F13003092B9346B4
:103D800098BF002201F2EC801BF8017B02EB82025B
:103D900003EB4202A7F13003092BF5D9049236E573
:103DA0004AF010030393039B13F0200600F059839D
:103DB000099B073323F007035E6853F8084B099308
:103DC000012382E7099B53F8044B099330234AF0FF
:103DD000020278278DF86C301D4B149303928DF8F6
:103DE0006D700026022370E79BF80070682F03BFF8
:103DF0009BF801704AF4007A0BF1010B4AF0400A7B
:103E000003E59BF800706C2F03BF9BF801704AF02C
:103E1000200A0BF1010B4AF0100AF6E49BF800703F
:103E20004AF0080AF1E49BF800704AF0010AECE459
:103E30009DF86B30002B7FF46EAD9BF800708DF811
:103E40006B10E2E4FFFFEF7F6CA7000870A700088B
:103E50007CA70008CDF80CA0012B00F0A181022B5B
:103E60004EAD20D1149A04F00F032409D35C05F859
:103E7000013D44EA0674360954EA0603F3D14EAB19
:103E80005B1BDDF80CA00793049907989DF86B3035
:103E900081424FF00002B8BF0146089203910C9294
:103EA0000F920D928CE604F00703E40844EA46748E
:103EB000F608303354EA06012A4605F8013DF2D1EE
:103EC0000399CC0700F175824EAB5B1B8A460793C2
:103ED000DAE7652F40F3D780DDE9100100220023E7
:103EE000FDF790F8002800F0C681239BC14AC8F86E
:103EF0000020013301340122072B24942393C8F8B6
:103F0000042000F3DE8408F108081C9B0E9A9342FB
:103F100080F2D182129B139A1C44C8E90023239B90
:103F200024940133072B239300F3228408F108081B
:103F30000E9B5D1E002D7FF7D5AD102D239B41F309
:103F40006981AD4F0A97224610261AEE104A05E005
:103F500008F10808103D102D40F3C18401331032E0
:103F6000072BC8E90076CDE92332F1DD22AA2146EC
:103F7000484604F07DF900287FF422ADDDE92332C4
:103F80000DF19408E6E7059B039A9E1A002E7FF731
:103F900090AD102E239B41F33F8097490B9522460D
:103FA0001AEE105A0A910C4604E0103E102E08F149
:103FB000080819DD013310321021072BCDE9233217
:103FC000C8F80040C8F80410EFDD22AA2946484688
:103FD0000DF1940804F04CF900287FF4F1AC103E88
:103FE000102EDDE92332E5DC0B9D144601330A9ADD
:103FF000C8F800203444072BCDE92334C8F8046006
:1040000000F3A883049B079A9E1A002E08F1080863
:104010007FF755AD102E239B40F30F8576480A900D
:10402000424621461AEE108A044604E0103E102E45
:1040300002F1080216DD013310311020072BCDE903
:10404000233114605060F1DD22AA4146484604F055
:104050000FF900287FF4B4AC103E102EDDE92331B7
:1040600025AAE8DC90460C4601330A9AC8F80020DD
:104070003444072BCDE92334C8F8046000F3D4811D
:1040800008F108081BE50E9B012B40F37381239E6A
:10409000C8F80050013601340123072E24942396DA
:1040A000C8F8043000F3968308F10808129B139AAD
:1040B00001361C44072EC8E90023CDE9236400F330
:1040C000978308F10808DDE9100100220023FCF7BE
:1040D00099FF002840F07B810E9B0136013B0135A2
:1040E0001C44072EC8F800502396C8F804302494C6
:1040F00000F3518108F10808169BC8F80430013616
:104100001C44072E1EABCDE92364C8F800307FF7AE
:10411000E7AC1AEE101A22AA484604F0A9F80028C3
:104120007FF44EAC249C0DF19408DBE4102EDDE905
:10413000233222DD199510241AEE105A04E0103EA5
:10414000102E08F1080817DD01332C491032072B17
:10415000C8E90014CDE92332F1DD22AA29464846F8
:104160000DF1940804F084F800287FF429AC103E87
:10417000102EDDE92332E7DC199DC8F80460013315
:10418000B418072B1D4AC8F80020CDE9233400F3EA
:104190007D839DF86B3008F1080860E4CDF80CA031
:1041A0000A2C76F1000380F0318330340123DDF8EE
:1041B0000CA08DF8374107930DF2371564E61AEE1F
:1041C000101A22AA484604F053F800287FF4F8ABEE
:1041D000249C0DF1940855E41AEE101A22AA4846C0
:1041E00004F046F800287FF4EBAB249C0DF1940812
:1041F0005BE400BFACA70008C0A70008B0A7000898
:10420000102D239B20DD1AEE107A102604E0103DBD
:10421000102D08F1080817DD0133AC4A1034072BC4
:10422000C8E90026CDE92334F1DD22AA3946484603
:104230000DF1940804F01CF800287FF4C1AB103D88
:10424000102DDDE92334E7DC0133A04AC8F804501F
:104250002C44072BCDE92334C8F800207FF74BAC62
:104260001AEE101A22AA484604F002F800287FF439
:10427000A7AB249C3FE41C9A002A40F32B81DDE984
:104280000D739F42A8BF1F46002F0BDD239B0133F8
:104290003C44072BC8E900572494239300F3D585A9
:1042A00008F108080D9E002FA8BFF61B002E00F392
:1042B00044830D9B1AF4806F2B44079340F0E384F2
:1042C0001C9B0E9A934203DB1AF0010F00F0D2837D
:1042D000129A13991444C8E90012239A24940132C3
:1042E000072A239200F3BF8508F108080E9A079960
:1042F000AE18761AD51AAE42A8BF2E46002E0DDD96
:10430000239BC8F8001001333444072BC8F804601D
:104310002494239300F3098608F10808002EA8BF0F
:10432000AD1B002D7FF7DEAB102D239B40F3728772
:10433000674F0A97224610261AEE104A05E008F148
:104340000808103D102D40F3CA8201331032072BAC
:10435000C8E90076CDE92332F1DD22AA214648469C
:1043600003F086FF00287FF42BABDDE923320DF14B
:104370009408E6E71AF0010F7FF489AE239EC8F88F
:104380000050013601340123072E24942396C8F8E7
:1043900004307FF7AFAE1AEE101A22AA484603F097
:1043A00067FF00287FF40CABDDE923640DF194086E
:1043B000A2E6302B3FF463AD3023023A05F8013C0E
:1043C0004EAB9B1ADDF80CA0079315465CE50E9BDF
:1043D0005D1E002D7FF790AE102D40F321873C4AE3
:1043E000CDF810A023461AEE10AA0A921027144600
:1043F00005E008F10808103D102D40F3E382013676
:104400001033072EC8E90047CDE92363F1DD22AA66
:104410005146484603F02CFF00287FF4D1AADDE97D
:1044200023630DF19408E6E71AEE101A22AA484613
:1044300003F01EFF00287FF4C3AA249C0DF194080A
:10444000FFF73DBB1AF0100340F03D811AF0400227
:1044500000F0C882099A52F8044B09921E46A4B291
:104460002FE4039B13F0100366D1039A12F040026D
:1044700000F0C682099A52F8044B09921E46A4B273
:10448000012322E453F8044B09931AF0100F4FD183
:104490001AF0400F48D044F3C036334624B2FFF739
:1044A000BABB2D2364428DF86B3066EB4606CDF81F
:1044B0000CA001230CE41AF0010F3FF413AB29E523
:1044C0009BF800700993FFF7A0B900BFB0A70008E0
:1044D000C0A70008239BB649C8F800100133013477
:1044E0000121072B24942393C8F8041000F384843B
:1044F00008F10808002A40F046820E9A0AF00103EB
:1045000013433FF4EFAA129B139A1C44C8E90023FB
:10451000239B24940133072B239300F3688308F132
:10452000080841E24EADAFE41AF4007F40F0AB82E0
:10453000E6173346FFF76FBB099B53F8044B09930B
:104540000123FFF7C2BBDDE9100102460B46FCF771
:104550008BFD002840F02E86612F00F07F85412FD3
:1045600000F0A082049B013327F02003039300F0A6
:10457000C085472B00F0AB85DDE910014AF480725D
:10458000002907924FF00003C0F2458441EC180B5C
:104590000A930893039B462B00F07484452B00F08C
:1045A0002585B0EE480AF0EE680A20AB01931DABFA
:1045B0000093049A1CAB0221484600F0C9FF039BFC
:1045C000472B054640F05E861AF0010F5646DDF88F
:1045D0001CA040F0E384209B5B1B0E93039B472BA6
:1045E00000F01B83039B462B00F089841C9B0D93DA
:1045F0000D9B039A013B412A1C9300F0E985FAB216
:104600000021002BB8BF0D9B8DF87820BABFC3F1F5
:1046100001032D222B22092B8DF8792040F36D8583
:104620000DF18704DFF898C1224610468CFB032168
:10463000DA17C2EBA10202EB8201A3EB4101303198
:1046400000F8011C19466329134600F1FF32ECDC27
:104650003033D9B2831E9C4202F8011C40F20E8610
:1046600013460DF17A0201E013F8011B02F8011B59
:104670009C42F9D10DF189030DF17A021B1A134402
:104680001EAA9B1A16930E9B169A012B1A44079288
:1046900040F3B285079B129A13440793079A0023AD
:1046A00026F4806622EAE27246F4807A0C93039242
:1046B0000F930D930A9B002B40F0DE8204939DF82C
:1046C0006B30FFF77DBA099B53F8044B0993FFF752
:1046D000F8BA099B069853F8041B0993C217C1E95D
:1046E00000025D46FFF71DBA159B002B3FF413A98E
:1046F000159B1B78002B3FF40EA99BF800704AF421
:10470000806AFFF782B8CDF80CA0FFF74CBB294BAD
:1047100014931AF0200655D0099B073323F00703A2
:104720005E6853F8084B09931AF0010F09D054EA58
:10473000060306D030238DF86D704AF0020A8DF81A
:104740006C302AF4806303930223FFF7BEBA1A4B3E
:104750001493DEE71AEE101A22AA484603F088FDE9
:1047600000287FF42DA9249C0DF19408FFF7A1B92E
:104770001AEE101A22AA484603F07AFD00287FF4A8
:104780001FA9249C0DF19408FFF7D2BB049A089549
:10479000062A294628BF062204952B460392074D78
:1047A000099407920C910F910D91FFF709BA00BF80
:1047B000ACA700087CA7000890A70008A4A70008E1
:1047C000676666661AF0100370D0099B53F8044BB5
:1047D0000993A9E71AEE101A22AA484603F048FDE9
:1047E00000287FF4EDA8DDE923640DF194085DE471
:1047F0001AEE101A22AA484603F03AFD00287FF468
:10480000DFA8DDE923640DF194085CE4039B00223A
:1048100003F48063CDE9077809EE109A0DF59C7AD0
:10482000DDF85490174698460CE0002320463146A8
:104830000A22FBF7A1FE0A2C76F100031CD30446E2
:104840000E46AA4620460A2200233146FBF794FE74
:1048500030320AF1FF3501370AF8012CB8F1000FA8
:10486000E3D099F800309F42DFD1FF2FDDD00A2C32
:1048700076F1000380F0E580CDF854900E97DDF8D6
:104880002080079F19EE109AFFF7F9BA1AEE101A56
:1048900022AA484603F0ECFC00287FF491A89DF87A
:1048A0006B30249C0DF19408FFF7D9B81AF0400240
:1048B00000F0B680099A52F8044B09921E46A4B241
:1048C00032E71AEE101A22AA484603F0D1FC00285B
:1048D0007FF476A8249C0DF19408FFF716BB1446CC
:1048E00001330A9AC8F800202C44072BC8F804505A
:1048F000CDE923347FF7F4A80BE4012BCDF80CA00D
:104900007FF4ADAA51E4099B069953F8042B5D4648
:1049100011600993FFF705B9284604960994FBF73F
:10492000AFFF20EAE0719DF86B3007900391089685
:104930000C960F960D96FFF743B9102E239B40F36C
:104940009684BC480A90424621461AEE108A1027E7
:10495000044604E00832103E102E40F33B8201333F
:104960001031072BC2E90047CDE92331F2DD22AA3D
:104970004146484603F07CFC00287FF421A8DDE98D
:10498000233125AAE7E7129B13991C44C8E90013B9
:10499000239B24940133072B239300F3288108F1F0
:1049A0000808002AC0F2FD820E9AC8F800500133B0
:1049B0001444072BCDE92334C8F804207FF790A8CE
:1049C000FFF7A7BBDDF810A01C4601360A9BC8F80C
:1049D00000302C44072ECDE92364C8F804507FF73B
:1049E00089ABD8E4099B1AF4007614BF53F8044B42
:1049F00053F8044B09931CBF1646E4B2FFF761B9A4
:104A0000039B13F40076099B14BF53F8044B53F82F
:104A1000044B09931CBF1646E4B20123FFF755B9B6
:104A2000099B1AF4007614BF53F8044B53F8044B57
:104A300009931CBF1646E4B276E67E4A0A92FFF757
:104A400013BB189B1799ED1A1A46284603F0A2FBD0
:104A500099F801300BB109F10109204631460A22CB
:104A600000230027FBF788FDE9E62D238DF86B3046
:104A7000FFF796B80E9A0799AE18761AD51AAE4275
:104A8000A8BF2E464AE444F3C016334664B2FFF78B
:104A9000C2B8099B069953F8042B099311805D460F
:104AA000FFF73FB830238DF86C3058238DF86D3008
:104AB000049B632B4AF0020400F3D5820023089381
:104AC00035ADDDE910124AF481730793002A27F00F
:104AD0002003A2460393C0F29F81002342EC181BDF
:104AE0000A93612F00F04A83412F7FF453ADB0EE5B
:104AF000480AF0EE680A1CA803F0BEFA00224FF044
:104B00007F5351EC100BFCF715F802460B4643ECB3
:104B1000192B00220023FCF775FA08B101231C931E
:104B2000454B0B93049B1995CDE90C7BCDE90EA861
:104B30000CEE109ADDF82CB059EC198B5E1E2C4649
:104B400005E000220023013EFCF75CFAE0B93B4B94
:104B5000002240464946FBF7EDFF89468046FCF7B8
:104B600099FA0546FBF79EFC0B460246494640462D
:104B7000FBF74AFB1BF80530A24604F8013B731C07
:104B8000374680468946DCD149EC198B2C4BDDF841
:104B90003C8051EC190B00223E461CEE109ADDE9D8
:104BA0000C7BCDF830A00D95DDF838A0199DFCF7F1
:104BB00051FA002840F0368251EC190B204B0022AC
:104BC000FCF720FA18B10D9BD90700F12B82002EBB
:104BD000334606DB01332344302204F8012BA34281
:104BE000FBD1631B56460E93DDF81CA0F6E41AEECB
:104BF000101A22AA484603F03BFB00287EF4E0AEE0
:104C0000DDE923341C9A0DF19408CAE61AEE103A35
:104C1000986D02F0ABF8FEF79FBE1C9B0D93DA1C5B
:104C200002DB049A93420DDD023F27F02003039339
:104C3000DEE400BFC0A7000890A7000800003040D5
:104C40000000E03FDDE90D329342C0F27F81F007C2
:104C500040F19182129A13440793710503D50D9B7D
:104C6000002B00F35A82079B23EAE3730393672721
:104C700000230C930F931DE52D2300228DF86B303C
:104C80000492FEF7A0BF0E9BCDF828B0DDF83CB033
:104C9000079E159FCDF81CA0EB1804934246DDF843
:104CA00060A00C9B0B951AEE108AA446BBF1000F76
:104CB00030D0002B71D1013F0BF1FF3B179BC2E9B4
:104CC000003A239B0133D444072BCDF890C02393A3
:104CD00067DC0832049B38789B1B8342A8BF0346DD
:104CE000002B1C460BDD239801309C440728C2E9A9
:104CF0000063CDF890C023905FDC38780832002C38
:104D0000ACBF051B0546002D17DC06440C9BBBF110
:104D1000000FCED1002B40D10B9D0E9BDDF81CA0C7
:104D2000DDF828B01597EB189E429046324628BF12
:104D30001A4664460792FFF7C3BA102D23981FDD69
:104D40001024634604E0103D102D02F1080216DD28
:104D50000130B34910330728C2E90014CDE9230319
:104D6000F1DD22AA4146484603F082FA00287EF48B
:104D700027AE103D102DDDE9230325AAE8DC9C4673
:104D80000130A74B5560AC440728CDE9230C1360D4
:104D90004DDC387808320644B8E70C9B013B0C9395
:104DA0008CE722AA4146484603F062FA00287EF4C6
:104DB00007AEDDF890C025AA8CE722AA41464846F6
:104DC00003F056FA00287EF4FBAD3878DDF890C089
:104DD00025AA94E790460C4601330A9AC8F80020A9
:104DE0003444072BCDE92334C8F8046000F3618113
:104DF00008F10808FFF75DBA1AEE101A22AA484611
:104E000003F036FA00287EF4DBAD1C9A249C0DF1E9
:104E10009408FFF76FBB0893DDE9103408EE103AF1
:104E200004F1004308EE903A2D230A9359E622AA92
:104E30004146484603F01CFA00287EF4C1AD38789C
:104E4000DDF890C025AA064460E71AEE101A22AADF
:104E5000484603F00DFA00287EF4B2AD249C0DF113
:104E60009408FFF71FBA1AEE101A22AA484603F058
:104E7000FFF900287EF4A4AD1C9B249C0DF194083E
:104E8000FFF734BA20AB01931DAB0093049AB0EE48
:104E9000480AF0EE680A1CAB0321484600F058FBB4
:104EA0000378302B054600F099811C9B049A5646E6
:104EB0001344DDF81CA0EC1851EC180B0022002361
:104EC000FCF7A0F810B12346FFF786BB209BA34256
:104ED000BFF482AB30215A1C20921970209B9C4257
:104EE000F9D8FFF779BB049B0393079309949DF8C6
:104EF0006B3004900C900F900D90FEF761BE1C9AE1
:104F00000D92002A40F39081049906F001030B43AF
:104F100040F02B810D9B07936627730500F1FE80FF
:104F2000079B23EAE3730393A2E61AEE101A22AA60
:104F3000484603F09DF900287EF442AD1C9D0E9B6F
:104F4000249C5D1B0DF19408FFF7E8B90E9B129AA3
:104F50009A180D9B0792002B40F353816727DCE7DB
:104F600000230493FEF753BC1AEE101A1AEE900AAF
:104F700022AA03F07DF900283EF4DBADFEF727BD41
:104F80006B6EDC0705D4AB89980502D4A86D01F0DF
:104F9000EDFE4FF0FF330693FEF723BD049BEC18A4
:104FA0008AE75642103280F26F811D480A904246CD
:104FB00021461AEE108A1027044603E00832103EFC
:104FC000102E5ADD01331031072BC2E90047CDE91D
:104FD0002331F3DD22AA4146484603F049F900286F
:104FE0007EF4EEACDDE9233125AAE8E7049BB0EEC0
:104FF000480AF0EE680A5C1C20AB01931DAB0093DD
:1050000022461CAB0221484600F0A2FA054656464D
:105010002C44DDF81CA04FE7014A0A92FEF7E6BFD8
:10502000C0A700080C9B20930B9B14F8012CD97B84
:105030008A42234609D1302003F8010C209B5A1ED6
:10504000209213F8012C9142F6D0392A0BBF0B9A0B
:105050000132927AD2B203F8012CC2E530238DF8E6
:105060006C30782322E5591C484601F029FF05469B
:10507000002800F00C81089023E590460C4601338F
:105080000A9AC8F800203444072BCDE92334C8F825
:1050900004607FF744AA1AEE101A22AA484603F0C9
:1050A000E7F800287EF48CACDDE923340DF1940898
:1050B0007AE41AEE101A22AA484603F0D9F800281A
:1050C0007EF47EAC249C0DF19408FFF7F2B8049BAB
:1050D000002B08BF01230493119B4AF48072002B1C
:1050E0000792C0F29B809DED108B0A900890FFF70D
:1050F00058BA06230493FFF73FBA002940F0A8806E
:1051000030228DF87A200DF17B02303302F8013B1A
:105110001EABD31A1693FFF7B6BA672715990B780B
:10512000FF2B00F0A78000240D9A204603E00130F9
:105130000131FF2B08D0934206DAD21A4B78002BAC
:10514000F5D10B780134F4E715910D920F900C9482
:105150000C9A0F9B18991344079A01FB032307939A
:1051600023EAE3730393FFF7A5BA129BD3181944FC
:1051700007916627D1E60D9B07936EE51CA8B0EE5C
:10518000480AF0EE680A02F077FF00224FF07F53E2
:1051900051EC100BFBF7CEFC02460B4643EC192BEF
:1051A00000220023FBF72EFF08B101231C933C4B88
:1051B0000B93B7E4119B3B4D3B4A002BB6BF2D230D
:1051C0009DF86B308DF86B302AF0800AFEF7ECBC4E
:1051D00007F10F02D2B20121FFF713BA51EC180BFD
:1051E00000220023FBF70EFF00287FF45EAE049B35
:1051F000C3F101031C9359E6F4077FF54FAAFFF7AB
:1052000049BAC3F101031A4422EAE27307920393F5
:1052100067272DE5254A0A92FFF762BB0890FBE558
:10522000224B0A93FFF7D1BB049A06F0010656EA17
:10523000020304D1012303936627079318E5129B09
:1052400001331A4422EAE2730792039366270FE5BB
:105250000DF17A0259E7099B9BF80170934653F8C8
:10526000042B099342EAE2720492FEF7CEBA0F4A87
:105270000A92B1E500230C930F9369E7022316937A
:10528000FFF701BA049CC2E6084A0A92F7E61AEE52
:10529000102A938943F040039381FEF798BB00BF27
:1052A0007CA7000874A7000878A70008C0A700081A
:1052B00070B50C468989ADF58E6D21F00201ADF80F
:1052C0001410616E1B91E189ADF81610E169099126
:1052D000616A0B911CA9029106914FF48061064608
:1052E0000491079118A80021CDE90032089101F03E
:1052F00037FDDDE9003202A93046FEF711FA051E3E
:1053000007DB02A9304601F059F9002818BF4FF019
:10531000FF35BDF814305B0603D5A38943F0400385
:10532000A381189801F01EFD28460DF58E6D70BD05
:1053300038B5334B1B6805460C460BB19A6B12B35C
:10534000B4F90C3018079AB225D5216900292DD05F
:1053500012F0010007D00020A06060694042A06107
:1053600039B1002038BD950758BF6069A060002999
:10537000F7D1120658BF0846F4D543F04003A38185
:105380004FF0FF3038BD184601F04CF9B4F90C303D
:1053900018079AB2D9D4D1062AD5520714D4216954
:1053A00043F00803A3819AB20029D1D102F42070FE
:1053B000B0F5007FCCD02146284601F0D9FCB4F9E5
:1053C0000C3021699AB2C3E7216B51B104F140025C
:1053D000914204D0284601F01DFAB4F90C300022A5
:1053E000226321690022C4E9001223F02403D7E7D5
:1053F000092243F040032A604FF0FF30A38138BDFB
:105400000C000020024B13B1024800F005B87047B1
:105410000000000049670008002301461A461846AC
:1054200003F086BE2DE9F04F03690C69A34283B0F7
:10543000C0F28780013C01F11405A30000F11408BB
:10544000009355F8243058F82420013381469A42BD
:1054500008EB840005EB84070190B2FBF3F63BD325
:105460000023AE4640469B465EF804AB02681FFA36
:105470008AFC06FB0C334FEA134C4FEA1A4A06FB30
:105480000ACA1FFA83FCABEB0C0C1FFA8AF31CFA56
:1054900082FCC3EB124202EB2C421FFA8CFC4CEA5A
:1054A0000243774540F8043B4FEA224B4FEA1A4348
:1054B000DAD2009B58F8033073B9019B043B98453E
:1054C00004D307E0984504F1FF3403D253F80429CC
:1054D000002AF7D0C9F81040484602F0B1FA002877
:1054E0002BDB01364046002355F8041BD0F800C0E2
:1054F0008AB29A1A0B0C12FA8CF2C3EB1C4303EB20
:10550000224392B242EA0342AF4240F8042B4FEAF0
:105510002343E9D258F8242008EB84036AB9043BFA
:10552000984504D307E0984504F1FF3403D253F8BB
:105530000429002AF7D0C9F81040304603B0BDE86E
:10554000F08F002003B0BDE8F08F00BF0000000026
:105550002DE9F04F2DED068B95B08DED020B0191ED
:10556000016C249D099259EC108B0446069341B1BD
:10557000426C4A60012393408B6001F0FFFF0023DF
:105580002364B9F1000AB4BF012300232B607C4BD4
:10559000BCBF2AF0004ACDF80CA033EA0A0300F0A1
:1055A000B2809DED027B002251EC170BB0EE479AC2
:1055B000F0EE679A0023FBF725FD074680B1069AB7
:1055C00001231360259B002B00F0DB826D481860DF
:1055D000431E0093009815B0BDEC068BBDE8F08F1C
:1055E00012AA13A92046B0EE490AF0EE690A02F0A9
:1055F000EFFAB0EE498AF0EE698A5FEA1A5605467C
:1056000040F09980DDE912763E4406F232402028CF
:1056100040F3AB83C0F140000AFA00FA06F21240F0
:1056200028FA00F04AEA0000FAF72CFF0123013EB5
:105630000D93A1F1F871544B0022FAF7E5FD4AA34E
:10564000D3E90023FBF776FA49A3D3E90023FAF75D
:10565000DDFD804630468946FAF724FF46A3D3E9AC
:105660000023FBF767FA02460B4640464946FAF725
:10567000CDFD80468946FBF70DFD002283460023C1
:1056800040464946FBF7C8FC002840F06D82BBF15C
:10569000160F00F25C823D4B03EBCB03D3E90023F2
:1056A00051EC190BFBF7B8FC002875D00023BE1B8A
:1056B0000C93731E0BF1FF3B049300F14F82002308
:1056C0000893BBF1000F6EDA089BCDF814B0A3EB82
:1056D0000B030893CBF100030B93019B092B4FF0B5
:1056E000000B69D8052B40F33E83043B0193002651
:1056F000019B023B032B00F29986DFE813F04E0476
:105700004B0443042604069A42F20F73CAF3130AA9
:1057100013605AEA08031DD1259B002B00F07D86FB
:105720001B4B00930833259A0098136015B0BDEC0D
:10573000068BBDE8F08F18EE903AC3F3130351ECDB
:10574000190B43F07F510D97A6F2FF36129F41F4DB
:10575000401170E7259B002B40F0DB830D4B00933D
:1057600038E700BFAFF3008061436F63A787D23F84
:10577000B3C8608B288AC63FFB799F501344D33F40
:105780000000F07FADA700080000F83F20A9000846
:10579000D4A70008D0A70008BE1B731E049300F115
:1057A0009A840C900890049B5B44CDE9043B002351
:1057B0000B93019B092B95D9002301264FF0FF3253
:1057C00001930A9607920993079B0F930021616446
:1057D000204601F0ADFE0090002800F02F86009BCF
:1057E0002364079B0E2B00F2F980002E00F0F68058
:1057F0000599002940F37184BD4B01F00F0203EBC2
:10580000C2034FEA2118C905D3E9006740F10384B8
:10581000B84B51EC190BD3E90823FBF7B5FA41EC6F
:10582000180B08F00F084FF0030AB8F1000F13D05F
:10583000DFF8C09218F0010F09D030463946D9E997
:105840000023FBF777F90AF1010A06460F465FEAE3
:10585000680809F10809EDD151EC180B32463B46B6
:10586000FBF792FA41EC1A0B0C9B5BB157EC1A6BED
:10587000A14B1AEE100A00223946FBF7CDFB002897
:1058800040F052855046FAF70DFE53EC1A2BFBF709
:1058900051F99A4B0022FAF7B9FC079B8046A1F117
:1058A0005079002B00F0F383059B1093079B0E9318
:1058B0000A9B002B00F0C0840E9A8D4B9049DDF8B6
:1058C00000A003EBC20353E902230020FBF75CFABC
:1058D00042464B46FAF798FC59EC1A8B41EC180BF0
:1058E00049461AEE100AFBF7D5FB0746FAF7DAFD30
:1058F00002460B461AEE100A4946FAF785FC303785
:105900000AF8017B53EC182B06460F46FBF784FB85
:10591000002840F055854FF000080AEE105ACDF8E7
:1059200044B055465BEC18AB08EE104A44462AE0FA
:105930000E9B01349C424BDA724B50465946002272
:10594000FBF7F8F86F4B002282468B46304639460B
:10595000FBF7F0F889468046FBF79CFB0746FAF711
:10596000A1FD02460B4640464946FAF74DFC30374A
:1059700005F8017B52465B4606460F46FBF74CFB9B
:10598000002840F0188532463B465B490020FAF774
:105990003BFC52465B46FBF73FFB0028C8D0109B00
:1059A000009A0593AA4618EE104A1AEE105A02E021
:1059B000924500F0EA84D1461AF8013D392BF7D020
:1059C0000133DBB28AF80030059B01330593ABE16C
:1059D000DDF844B01AEE105A18EE104A139B002B53
:1059E000C0F29480059A0E2A00F39080404B03EB9E
:1059F000C203D3E90089099B002B1BDA079B002B0C
:105A000018DC40F05D83404B002240464946FBF7DE
:105A100091F802460B4651EC190BFBF707FBDDF83A
:105A20001CA05646002800F0D082099BDDF80080BB
:105A3000DF43D2E242464B4651EC190BFBF7A4F987
:105A4000FBF728FB06468346FAF72CFD42464B46F9
:105A5000FBF770F80B46024651EC190BFAF7D4FB32
:105A6000DDF800A0334630330AF8013B079B012BD9
:105A700000F08E834FF0010B08EE105A08EE904AAA
:105A80001D465446DA461DE042464B4630463946EE
:105A9000FBF77AF9FBF7FEFA8346FAF703FD424675
:105AA0004B46FBF747F80AF1010A0B460246394616
:105AB0003046FAF7A9FB0BF13003AA4504F8013B85
:105AC00000F061830F4B0022FBF734F80022002323
:105AD00006460F46FBF796FA0028D5D0A24618EEE8
:105AE000105A18EE904A059B01330593D1461BE1ED
:105AF00020A90008F8A800080000F03F00001C40A2
:105B00000000E03F00002440000014400A9A002AF0
